{
  "_format": "hh-sol-artifact-1",
  "contractName": "VotingSystem",
  "sourceName": "contracts/VotingSystem.sol",
  "abi": [
    {
      "anonymous": false,
      "inputs": [
        {
          "indexed": false,
          "internalType": "uint256",
          "name": "id",
          "type": "uint256"
        },
        {
          "indexed": false,
          "internalType": "string",
          "name": "name",
          "type": "string"
        },
        {
          "indexed": false,
          "internalType": "string",
          "name": "description",
          "type": "string"
        },
        {
          "indexed": false,
          "internalType": "uint256",
          "name": "voteCount",
          "type": "uint256"
        }
      ],
      "name": "CandidateAdded",
      "type": "event"
    },
    {
      "anonymous": false,
      "inputs": [
        {
          "indexed": false,
          "internalType": "string",
          "name": "name",
          "type": "string"
        },
        {
          "indexed": false,
          "internalType": "uint256",
          "name": "voteCount",
          "type": "uint256"
        }
      ],
      "name": "Voted",
      "type": "event"
    },
    {
      "anonymous": false,
      "inputs": [
        {
          "indexed": false,
          "internalType": "uint256",
          "name": "id",
          "type": "uint256"
        },
        {
          "indexed": false,
          "internalType": "string",
          "name": "name",
          "type": "string"
        },
        {
          "indexed": false,
          "internalType": "uint256",
          "name": "aadhar_number",
          "type": "uint256"
        },
        {
          "indexed": false,
          "internalType": "address",
          "name": "voter_id",
          "type": "address"
        },
        {
          "indexed": false,
          "internalType": "bool",
          "name": "voted",
          "type": "bool"
        }
      ],
      "name": "VoterAdded",
      "type": "event"
    },
    {
      "inputs": [
        {
          "internalType": "string",
          "name": "_name",
          "type": "string"
        },
        {
          "internalType": "string",
          "name": "_description",
          "type": "string"
        }
      ],
      "name": "addCandidate",
      "outputs": [],
      "stateMutability": "nonpayable",
      "type": "function"
    },
    {
      "inputs": [
        {
          "internalType": "uint256",
          "name": "candidate_id",
          "type": "uint256"
        },
        {
          "internalType": "uint256",
          "name": "voter_id",
          "type": "uint256"
        }
      ],
      "name": "addVote",
      "outputs": [],
      "stateMutability": "nonpayable",
      "type": "function"
    },
    {
      "inputs": [
        {
          "internalType": "string",
          "name": "_name",
          "type": "string"
        },
        {
          "internalType": "uint256",
          "name": "_aadhar_number",
          "type": "uint256"
        },
        {
          "internalType": "address",
          "name": "_voter_id",
          "type": "address"
        }
      ],
      "name": "addVoter",
      "outputs": [],
      "stateMutability": "nonpayable",
      "type": "function"
    },
    {
      "inputs": [],
      "name": "candidateCount",
      "outputs": [
        {
          "internalType": "uint256",
          "name": "",
          "type": "uint256"
        }
      ],
      "stateMutability": "view",
      "type": "function"
    },
    {
      "inputs": [
        {
          "internalType": "uint256",
          "name": "",
          "type": "uint256"
        }
      ],
      "name": "candidateList",
      "outputs": [
        {
          "internalType": "uint256",
          "name": "id",
          "type": "uint256"
        },
        {
          "internalType": "string",
          "name": "name",
          "type": "string"
        },
        {
          "internalType": "string",
          "name": "description",
          "type": "string"
        },
        {
          "internalType": "uint256",
          "name": "voteCount",
          "type": "uint256"
        }
      ],
      "stateMutability": "view",
      "type": "function"
    },
    {
      "inputs": [],
      "name": "getCandidatesList",
      "outputs": [
        {
          "components": [
            {
              "internalType": "uint256",
              "name": "id",
              "type": "uint256"
            },
            {
              "internalType": "string",
              "name": "name",
              "type": "string"
            },
            {
              "internalType": "string",
              "name": "description",
              "type": "string"
            },
            {
              "internalType": "uint256",
              "name": "voteCount",
              "type": "uint256"
            }
          ],
          "internalType": "struct VotingSystem.Candidate[]",
          "name": "",
          "type": "tuple[]"
        }
      ],
      "stateMutability": "view",
      "type": "function"
    },
    {
      "inputs": [],
      "name": "getVotersList",
      "outputs": [
        {
          "components": [
            {
              "internalType": "uint256",
              "name": "id",
              "type": "uint256"
            },
            {
              "internalType": "string",
              "name": "name",
              "type": "string"
            },
            {
              "internalType": "uint256",
              "name": "aadhar_number",
              "type": "uint256"
            },
            {
              "internalType": "address",
              "name": "voter_id",
              "type": "address"
            },
            {
              "internalType": "bool",
              "name": "voted",
              "type": "bool"
            }
          ],
          "internalType": "struct VotingSystem.Voter[]",
          "name": "",
          "type": "tuple[]"
        }
      ],
      "stateMutability": "view",
      "type": "function"
    },
    {
      "inputs": [],
      "name": "voterCount",
      "outputs": [
        {
          "internalType": "uint256",
          "name": "",
          "type": "uint256"
        }
      ],
      "stateMutability": "view",
      "type": "function"
    },
    {
      "inputs": [
        {
          "internalType": "uint256",
          "name": "",
          "type": "uint256"
        }
      ],
      "name": "voterList",
      "outputs": [
        {
          "internalType": "uint256",
          "name": "id",
          "type": "uint256"
        },
        {
          "internalType": "string",
          "name": "name",
          "type": "string"
        },
        {
          "internalType": "uint256",
          "name": "aadhar_number",
          "type": "uint256"
        },
        {
          "internalType": "address",
          "name": "voter_id",
          "type": "address"
        },
        {
          "internalType": "bool",
          "name": "voted",
          "type": "bool"
        }
      ],
      "stateMutability": "view",
      "type": "function"
    }
  ],
  "bytecode": "0x608060405234801561001057600080fd5b50611989806100206000396000f3fe608060405234801561001057600080fd5b50600436106100935760003560e01c806350e2e8af1161006657806350e2e8af1461010c578063a9a981a314610140578063b13c744b1461015e578063bc86f38514610191578063fcca991b146101af57610093565b8063256b237a1461009857806326541b56146100b457806342169e48146100d05780634aba5f34146100ee575b600080fd5b6100b260048036038101906100ad9190610d6f565b6101cb565b005b6100ce60048036038101906100c99190610dde565b61034a565b005b6100d8610402565b6040516100e59190610e65565b60405180910390f35b6100f6610408565b604051610103919061103a565b60405180910390f35b6101266004803603810190610121919061105c565b610605565b6040516101379594939291906110fd565b60405180910390f35b6101486106f0565b6040516101559190610e65565b60405180910390f35b6101786004803603810190610173919061105c565b6106f6565b6040516101889493929190611157565b60405180910390f35b610199610836565b6040516101a69190611300565b60405180910390f35b6101c960048036038101906101c49190611322565b610a13565b005b6000821161020e576040517f08c379a0000000000000000000000000000000000000000000000000000000008152600401610205906113ae565b60405180910390fd5b6000600360006001548152602001908152602001600020905060015481600001819055508381600101908161024391906115da565b50828160020181905550818160030160006101000a81548173ffffffffffffffffffffffffffffffffffffffff021916908373ffffffffffffffffffffffffffffffffffffffff16021790555060008160030160146101000a81548160ff021916908315150217905550600160008154809291906102c0906116db565b91905055507fe897348a4979c96adc6ca882d2567499192bd0ee2a3d6ea848f98f1f352bdcb081600001548260010183600201548460030160009054906101000a900473ffffffffffffffffffffffffffffffffffffffff168560030160149054906101000a900460ff1660405161033c9594939291906117a7565b60405180910390a150505050565b60006002600080548152602001908152602001600020905060005481600001819055508281600101908161037e91906115da565b508181600201908161039091906115da565b50600081600301819055506000808154809291906103ad906116db565b91905055507fdd6daafbec7bc65fb954191f5538d48cc40cf3f5560fa099c1ad4dc97270cfd98160000154826001018360020184600301546040516103f59493929190611801565b60405180910390a1505050565b60015481565b60606000805467ffffffffffffffff81111561042757610426610bb0565b5b60405190808252806020026020018201604052801561046057816020015b61044d610b12565b8152602001906001900390816104455790505b50905060005b6000548110156105fd57600060026000838152602001908152602001600020905080604051806080016040529081600082015481526020016001820180546104ad906113fd565b80601f01602080910402602001604051908101604052809291908181526020018280546104d9906113fd565b80156105265780601f106104fb57610100808354040283529160200191610526565b820191906000526020600020905b81548152906001019060200180831161050957829003601f168201915b5050505050815260200160028201805461053f906113fd565b80601f016020809104026020016040519081016040528092919081815260200182805461056b906113fd565b80156105b85780601f1061058d576101008083540402835291602001916105b8565b820191906000526020600020905b81548152906001019060200180831161059b57829003601f168201915b505050505081526020016003820154815250508383815181106105de576105dd611854565b5b60200260200101819052505080806105f5906116db565b915050610466565b508091505090565b600360205280600052604060002060009150905080600001549080600101805461062e906113fd565b80601f016020809104026020016040519081016040528092919081815260200182805461065a906113fd565b80156106a75780601f1061067c576101008083540402835291602001916106a7565b820191906000526020600020905b81548152906001019060200180831161068a57829003601f168201915b5050505050908060020154908060030160009054906101000a900473ffffffffffffffffffffffffffffffffffffffff16908060030160149054906101000a900460ff16905085565b60005481565b600260205280600052604060002060009150905080600001549080600101805461071f906113fd565b80601f016020809104026020016040519081016040528092919081815260200182805461074b906113fd565b80156107985780601f1061076d57610100808354040283529160200191610798565b820191906000526020600020905b81548152906001019060200180831161077b57829003601f168201915b5050505050908060020180546107ad906113fd565b80601f01602080910402602001604051908101604052809291908181526020018280546107d9906113fd565b80156108265780601f106107fb57610100808354040283529160200191610826565b820191906000526020600020905b81548152906001019060200180831161080957829003601f168201915b5050505050908060030154905084565b6060600060015467ffffffffffffffff81111561085657610855610bb0565b5b60405190808252806020026020018201604052801561088f57816020015b61087c610b3a565b8152602001906001900390816108745790505b50905060005b600154811015610a0b576000600360008381526020019081526020016000209050806040518060a0016040529081600082015481526020016001820180546108dc906113fd565b80601f0160208091040260200160405190810160405280929190818152602001828054610908906113fd565b80156109555780601f1061092a57610100808354040283529160200191610955565b820191906000526020600020905b81548152906001019060200180831161093857829003601f168201915b50505050508152602001600282015481526020016003820160009054906101000a900473ffffffffffffffffffffffffffffffffffffffff1673ffffffffffffffffffffffffffffffffffffffff1673ffffffffffffffffffffffffffffffffffffffff1681526020016003820160149054906101000a900460ff1615151515815250508383815181106109ec576109eb611854565b5b6020026020010181905250508080610a03906116db565b915050610895565b508091505090565b60006003600083815260200190815260200160002090508060030160149054906101000a900460ff1615610a7c576040517f08c379a0000000000000000000000000000000000000000000000000000000008152600401610a73906118cf565b60405180910390fd5b60006002600085815260200190815260200160002090506001816003016000828254610aa891906118ef565b9250508190555060018260030160146101000a81548160ff0219169083151502179055507f82ea01a4479f27996bbe8de24f4c8d962035fe2f32a2b130c8c9ca593ab91aa8816001018260030154604051610b04929190611923565b60405180910390a150505050565b6040518060800160405280600081526020016060815260200160608152602001600081525090565b6040518060a00160405280600081526020016060815260200160008152602001600073ffffffffffffffffffffffffffffffffffffffff1681526020016000151581525090565b6000604051905090565b600080fd5b600080fd5b600080fd5b600080fd5b6000601f19601f8301169050919050565b7f4e487b7100000000000000000000000000000000000000000000000000000000600052604160045260246000fd5b610be882610b9f565b810181811067ffffffffffffffff82111715610c0757610c06610bb0565b5b80604052505050565b6000610c1a610b81565b9050610c268282610bdf565b919050565b600067ffffffffffffffff821115610c4657610c45610bb0565b5b610c4f82610b9f565b9050602081019050919050565b82818337600083830152505050565b6000610c7e610c7984610c2b565b610c10565b905082815260208101848484011115610c9a57610c99610b9a565b5b610ca5848285610c5c565b509392505050565b600082601f830112610cc257610cc1610b95565b5b8135610cd2848260208601610c6b565b91505092915050565b6000819050919050565b610cee81610cdb565b8114610cf957600080fd5b50565b600081359050610d0b81610ce5565b92915050565b600073ffffffffffffffffffffffffffffffffffffffff82169050919050565b6000610d3c82610d11565b9050919050565b610d4c81610d31565b8114610d5757600080fd5b50565b600081359050610d6981610d43565b92915050565b600080600060608486031215610d8857610d87610b8b565b5b600084013567ffffffffffffffff811115610da657610da5610b90565b5b610db286828701610cad565b9350506020610dc386828701610cfc565b9250506040610dd486828701610d5a565b9150509250925092565b60008060408385031215610df557610df4610b8b565b5b600083013567ffffffffffffffff811115610e1357610e12610b90565b5b610e1f85828601610cad565b925050602083013567ffffffffffffffff811115610e4057610e3f610b90565b5b610e4c85828601610cad565b9150509250929050565b610e5f81610cdb565b82525050565b6000602082019050610e7a6000830184610e56565b92915050565b600081519050919050565b600082825260208201905092915050565b6000819050602082019050919050565b610eb581610cdb565b82525050565b600081519050919050565b600082825260208201905092915050565b60005b83811015610ef5578082015181840152602081019050610eda565b60008484015250505050565b6000610f0c82610ebb565b610f168185610ec6565b9350610f26818560208601610ed7565b610f2f81610b9f565b840191505092915050565b6000608083016000830151610f526000860182610eac565b5060208301518482036020860152610f6a8282610f01565b91505060408301518482036040860152610f848282610f01565b9150506060830151610f996060860182610eac565b508091505092915050565b6000610fb08383610f3a565b905092915050565b6000602082019050919050565b6000610fd082610e80565b610fda8185610e8b565b935083602082028501610fec85610e9c565b8060005b8581101561102857848403895281516110098582610fa4565b945061101483610fb8565b925060208a01995050600181019050610ff0565b50829750879550505050505092915050565b600060208201905081810360008301526110548184610fc5565b905092915050565b60006020828403121561107257611071610b8b565b5b600061108084828501610cfc565b91505092915050565b600082825260208201905092915050565b60006110a582610ebb565b6110af8185611089565b93506110bf818560208601610ed7565b6110c881610b9f565b840191505092915050565b6110dc81610d31565b82525050565b60008115159050919050565b6110f7816110e2565b82525050565b600060a0820190506111126000830188610e56565b8181036020830152611124818761109a565b90506111336040830186610e56565b61114060608301856110d3565b61114d60808301846110ee565b9695505050505050565b600060808201905061116c6000830187610e56565b818103602083015261117e818661109a565b90508181036040830152611192818561109a565b90506111a16060830184610e56565b95945050505050565b600081519050919050565b600082825260208201905092915050565b6000819050602082019050919050565b6111df81610d31565b82525050565b6111ee816110e2565b82525050565b600060a08301600083015161120c6000860182610eac565b50602083015184820360208601526112248282610f01565b91505060408301516112396040860182610eac565b50606083015161124c60608601826111d6565b50608083015161125f60808601826111e5565b508091505092915050565b600061127683836111f4565b905092915050565b6000602082019050919050565b6000611296826111aa565b6112a081856111b5565b9350836020820285016112b2856111c6565b8060005b858110156112ee57848403895281516112cf858261126a565b94506112da8361127e565b925060208a019950506001810190506112b6565b50829750879550505050505092915050565b6000602082019050818103600083015261131a818461128b565b905092915050565b6000806040838503121561133957611338610b8b565b5b600061134785828601610cfc565b925050602061135885828601610cfc565b9150509250929050565b7f416468616172206669656c6420656d7074790000000000000000000000000000600082015250565b6000611398601283611089565b91506113a382611362565b602082019050919050565b600060208201905081810360008301526113c78161138b565b9050919050565b7f4e487b7100000000000000000000000000000000000000000000000000000000600052602260045260246000fd5b6000600282049050600182168061141557607f821691505b602082108103611428576114276113ce565b5b50919050565b60008190508160005260206000209050919050565b60006020601f8301049050919050565b600082821b905092915050565b6000600883026114907fffffffffffffffffffffffffffffffffffffffffffffffffffffffffffffffff82611453565b61149a8683611453565b95508019841693508086168417925050509392505050565b6000819050919050565b60006114d76114d26114cd84610cdb565b6114b2565b610cdb565b9050919050565b6000819050919050565b6114f1836114bc565b6115056114fd826114de565b848454611460565b825550505050565b600090565b61151a61150d565b6115258184846114e8565b505050565b5b818110156115495761153e600082611512565b60018101905061152b565b5050565b601f82111561158e5761155f8161142e565b61156884611443565b81016020851015611577578190505b61158b61158385611443565b83018261152a565b50505b505050565b600082821c905092915050565b60006115b160001984600802611593565b1980831691505092915050565b60006115ca83836115a0565b9150826002028217905092915050565b6115e382610ebb565b67ffffffffffffffff8111156115fc576115fb610bb0565b5b61160682546113fd565b61161182828561154d565b600060209050601f8311600181146116445760008415611632578287015190505b61163c85826115be565b8655506116a4565b601f1984166116528661142e565b60005b8281101561167a57848901518255600182019150602085019450602081019050611655565b868310156116975784890151611693601f8916826115a0565b8355505b6001600288020188555050505b505050505050565b7f4e487b7100000000000000000000000000000000000000000000000000000000600052601160045260246000fd5b60006116e682610cdb565b91507fffffffffffffffffffffffffffffffffffffffffffffffffffffffffffffffff8203611718576117176116ac565b5b600182019050919050565b60008154611730816113fd565b61173a8186611089565b94506001821660008114611755576001811461176b5761179e565b60ff19831686528115156020028601935061179e565b6117748561142e565b60005b8381101561179657815481890152600182019150602081019050611777565b808801955050505b50505092915050565b600060a0820190506117bc6000830188610e56565b81810360208301526117ce8187611723565b90506117dd6040830186610e56565b6117ea60608301856110d3565b6117f760808301846110ee565b9695505050505050565b60006080820190506118166000830187610e56565b81810360208301526118288186611723565b9050818103604083015261183c8185611723565b905061184b6060830184610e56565b95945050505050565b7f4e487b7100000000000000000000000000000000000000000000000000000000600052603260045260246000fd5b7f566f74657220416c726561647920766f74656400000000000000000000000000600082015250565b60006118b9601383611089565b91506118c482611883565b602082019050919050565b600060208201905081810360008301526118e8816118ac565b9050919050565b60006118fa82610cdb565b915061190583610cdb565b925082820190508082111561191d5761191c6116ac565b5b92915050565b6000604082019050818103600083015261193d8185611723565b905061194c6020830184610e56565b939250505056fea26469706673582212201440b74061598231141db3e12b153989184f018f5a4c91bfaa736ceafa51d2d764736f6c63430008120033",
  "linkReferences": {},
  "deployedLinkReferences": {}
}