{
  "_format": "hh-sol-artifact-1",
  "contractName": "VotingSystem",
  "sourceName": "contracts/VotingSystem.sol",
  "abi": [
    {
      "anonymous": false,
      "inputs": [
        {
          "indexed": false,
          "internalType": "uint256",
          "name": "id",
          "type": "uint256"
        },
        {
          "indexed": false,
          "internalType": "string",
          "name": "name",
          "type": "string"
        },
        {
          "indexed": false,
          "internalType": "string",
          "name": "description",
          "type": "string"
        },
        {
          "indexed": false,
          "internalType": "uint256",
          "name": "voteCount",
          "type": "uint256"
        }
      ],
      "name": "CandidateAdded",
      "type": "event"
    },
    {
      "anonymous": false,
      "inputs": [
        {
          "indexed": false,
          "internalType": "string",
          "name": "name",
          "type": "string"
        },
        {
          "indexed": false,
          "internalType": "uint256",
          "name": "voteCount",
          "type": "uint256"
        }
      ],
      "name": "Voted",
      "type": "event"
    },
    {
      "anonymous": false,
      "inputs": [
        {
          "indexed": false,
          "internalType": "uint256",
          "name": "id",
          "type": "uint256"
        },
        {
          "indexed": false,
          "internalType": "string",
          "name": "name",
          "type": "string"
        },
        {
          "indexed": false,
          "internalType": "uint256",
          "name": "aadhar_number",
          "type": "uint256"
        },
        {
          "indexed": false,
          "internalType": "address",
          "name": "voter_id",
          "type": "address"
        },
        {
          "indexed": false,
          "internalType": "bool",
          "name": "voted",
          "type": "bool"
        }
      ],
      "name": "VoterAdded",
      "type": "event"
    },
    {
      "inputs": [
        {
          "internalType": "string",
          "name": "_name",
          "type": "string"
        },
        {
          "internalType": "string",
          "name": "_description",
          "type": "string"
        }
      ],
      "name": "addCandidate",
      "outputs": [],
      "stateMutability": "nonpayable",
      "type": "function"
    },
    {
      "inputs": [
        {
          "internalType": "uint256",
          "name": "candidate_id",
          "type": "uint256"
        },
        {
          "internalType": "uint256",
          "name": "voter_id",
          "type": "uint256"
        }
      ],
      "name": "addVote",
      "outputs": [],
      "stateMutability": "nonpayable",
      "type": "function"
    },
    {
      "inputs": [
        {
          "internalType": "string",
          "name": "_name",
          "type": "string"
        },
        {
          "internalType": "uint256",
          "name": "_aadhar_number",
          "type": "uint256"
        },
        {
          "internalType": "address",
          "name": "_voter_id",
          "type": "address"
        }
      ],
      "name": "addVoter",
      "outputs": [],
      "stateMutability": "nonpayable",
      "type": "function"
    },
    {
      "inputs": [],
      "name": "getCandidatesList",
      "outputs": [
        {
          "components": [
            {
              "internalType": "uint256",
              "name": "id",
              "type": "uint256"
            },
            {
              "internalType": "string",
              "name": "name",
              "type": "string"
            },
            {
              "internalType": "string",
              "name": "description",
              "type": "string"
            },
            {
              "internalType": "uint256",
              "name": "voteCount",
              "type": "uint256"
            }
          ],
          "internalType": "struct VotingSystem.Candidate[]",
          "name": "",
          "type": "tuple[]"
        }
      ],
      "stateMutability": "view",
      "type": "function"
    },
    {
      "inputs": [],
      "name": "getVotersList",
      "outputs": [
        {
          "components": [
            {
              "internalType": "uint256",
              "name": "id",
              "type": "uint256"
            },
            {
              "internalType": "string",
              "name": "name",
              "type": "string"
            },
            {
              "internalType": "uint256",
              "name": "aadhar_number",
              "type": "uint256"
            },
            {
              "internalType": "address",
              "name": "voter_id",
              "type": "address"
            },
            {
              "internalType": "bool",
              "name": "voted",
              "type": "bool"
            }
          ],
          "internalType": "struct VotingSystem.Voter[]",
          "name": "",
          "type": "tuple[]"
        }
      ],
      "stateMutability": "view",
      "type": "function"
    }
  ],
  "bytecode": "0x608060405234801561001057600080fd5b50611545806100206000396000f3fe608060405234801561001057600080fd5b50600436106100575760003560e01c8063256b237a1461005c57806326541b56146100785780634aba5f3414610094578063bc86f385146100b2578063fcca991b146100d0575b600080fd5b61007660048036038101906100719190610a59565b6100ec565b005b610092600480360381019061008d9190610ac8565b61026b565b005b61009c610323565b6040516100a99190610cfa565b60405180910390f35b6100ba610520565b6040516100c79190610e7e565b60405180910390f35b6100ea60048036038101906100e59190610ea0565b6106fd565b005b6000821161012f576040517f08c379a000000000000000000000000000000000000000000000000000000000815260040161012690610f3d565b60405180910390fd5b600060036000600154815260200190815260200160002090506001548160000181905550838160010190816101649190611169565b50828160020181905550818160030160006101000a81548173ffffffffffffffffffffffffffffffffffffffff021916908373ffffffffffffffffffffffffffffffffffffffff16021790555060008160030160146101000a81548160ff021916908315150217905550600160008154809291906101e19061126a565b91905055507fe897348a4979c96adc6ca882d2567499192bd0ee2a3d6ea848f98f1f352bdcb081600001548260010183600201548460030160009054906101000a900473ffffffffffffffffffffffffffffffffffffffff168560030160149054906101000a900460ff1660405161025d959493929190611363565b60405180910390a150505050565b60006002600080548152602001908152602001600020905060005481600001819055508281600101908161029f9190611169565b50818160020190816102b19190611169565b50600081600301819055506000808154809291906102ce9061126a565b91905055507fdd6daafbec7bc65fb954191f5538d48cc40cf3f5560fa099c1ad4dc97270cfd981600001548260010183600201846003015460405161031694939291906113bd565b60405180910390a1505050565b60606000805467ffffffffffffffff8111156103425761034161089a565b5b60405190808252806020026020018201604052801561037b57816020015b6103686107fc565b8152602001906001900390816103605790505b50905060005b60005481101561051857600060026000838152602001908152602001600020905080604051806080016040529081600082015481526020016001820180546103c890610f8c565b80601f01602080910402602001604051908101604052809291908181526020018280546103f490610f8c565b80156104415780601f1061041657610100808354040283529160200191610441565b820191906000526020600020905b81548152906001019060200180831161042457829003601f168201915b5050505050815260200160028201805461045a90610f8c565b80601f016020809104026020016040519081016040528092919081815260200182805461048690610f8c565b80156104d35780601f106104a8576101008083540402835291602001916104d3565b820191906000526020600020905b8154815290600101906020018083116104b657829003601f168201915b505050505081526020016003820154815250508383815181106104f9576104f8611410565b5b60200260200101819052505080806105109061126a565b915050610381565b508091505090565b6060600060015467ffffffffffffffff8111156105405761053f61089a565b5b60405190808252806020026020018201604052801561057957816020015b610566610824565b81526020019060019003908161055e5790505b50905060005b6001548110156106f5576000600360008381526020019081526020016000209050806040518060a0016040529081600082015481526020016001820180546105c690610f8c565b80601f01602080910402602001604051908101604052809291908181526020018280546105f290610f8c565b801561063f5780601f106106145761010080835404028352916020019161063f565b820191906000526020600020905b81548152906001019060200180831161062257829003601f168201915b50505050508152602001600282015481526020016003820160009054906101000a900473ffffffffffffffffffffffffffffffffffffffff1673ffffffffffffffffffffffffffffffffffffffff1673ffffffffffffffffffffffffffffffffffffffff1681526020016003820160149054906101000a900460ff1615151515815250508383815181106106d6576106d5611410565b5b60200260200101819052505080806106ed9061126a565b91505061057f565b508091505090565b60006003600083815260200190815260200160002090508060030160149054906101000a900460ff1615610766576040517f08c379a000000000000000000000000000000000000000000000000000000000815260040161075d9061148b565b60405180910390fd5b6000600260008581526020019081526020016000209050600181600301600082825461079291906114ab565b9250508190555060018260030160146101000a81548160ff0219169083151502179055507f82ea01a4479f27996bbe8de24f4c8d962035fe2f32a2b130c8c9ca593ab91aa88160010182600301546040516107ee9291906114df565b60405180910390a150505050565b6040518060800160405280600081526020016060815260200160608152602001600081525090565b6040518060a00160405280600081526020016060815260200160008152602001600073ffffffffffffffffffffffffffffffffffffffff1681526020016000151581525090565b6000604051905090565b600080fd5b600080fd5b600080fd5b600080fd5b6000601f19601f8301169050919050565b7f4e487b7100000000000000000000000000000000000000000000000000000000600052604160045260246000fd5b6108d282610889565b810181811067ffffffffffffffff821117156108f1576108f061089a565b5b80604052505050565b600061090461086b565b905061091082826108c9565b919050565b600067ffffffffffffffff8211156109305761092f61089a565b5b61093982610889565b9050602081019050919050565b82818337600083830152505050565b600061096861096384610915565b6108fa565b90508281526020810184848401111561098457610983610884565b5b61098f848285610946565b509392505050565b600082601f8301126109ac576109ab61087f565b5b81356109bc848260208601610955565b91505092915050565b6000819050919050565b6109d8816109c5565b81146109e357600080fd5b50565b6000813590506109f5816109cf565b92915050565b600073ffffffffffffffffffffffffffffffffffffffff82169050919050565b6000610a26826109fb565b9050919050565b610a3681610a1b565b8114610a4157600080fd5b50565b600081359050610a5381610a2d565b92915050565b600080600060608486031215610a7257610a71610875565b5b600084013567ffffffffffffffff811115610a9057610a8f61087a565b5b610a9c86828701610997565b9350506020610aad868287016109e6565b9250506040610abe86828701610a44565b9150509250925092565b60008060408385031215610adf57610ade610875565b5b600083013567ffffffffffffffff811115610afd57610afc61087a565b5b610b0985828601610997565b925050602083013567ffffffffffffffff811115610b2a57610b2961087a565b5b610b3685828601610997565b9150509250929050565b600081519050919050565b600082825260208201905092915050565b6000819050602082019050919050565b610b75816109c5565b82525050565b600081519050919050565b600082825260208201905092915050565b60005b83811015610bb5578082015181840152602081019050610b9a565b60008484015250505050565b6000610bcc82610b7b565b610bd68185610b86565b9350610be6818560208601610b97565b610bef81610889565b840191505092915050565b6000608083016000830151610c126000860182610b6c565b5060208301518482036020860152610c2a8282610bc1565b91505060408301518482036040860152610c448282610bc1565b9150506060830151610c596060860182610b6c565b508091505092915050565b6000610c708383610bfa565b905092915050565b6000602082019050919050565b6000610c9082610b40565b610c9a8185610b4b565b935083602082028501610cac85610b5c565b8060005b85811015610ce85784840389528151610cc98582610c64565b9450610cd483610c78565b925060208a01995050600181019050610cb0565b50829750879550505050505092915050565b60006020820190508181036000830152610d148184610c85565b905092915050565b600081519050919050565b600082825260208201905092915050565b6000819050602082019050919050565b610d5181610a1b565b82525050565b60008115159050919050565b610d6c81610d57565b82525050565b600060a083016000830151610d8a6000860182610b6c565b5060208301518482036020860152610da28282610bc1565b9150506040830151610db76040860182610b6c565b506060830151610dca6060860182610d48565b506080830151610ddd6080860182610d63565b508091505092915050565b6000610df48383610d72565b905092915050565b6000602082019050919050565b6000610e1482610d1c565b610e1e8185610d27565b935083602082028501610e3085610d38565b8060005b85811015610e6c5784840389528151610e4d8582610de8565b9450610e5883610dfc565b925060208a01995050600181019050610e34565b50829750879550505050505092915050565b60006020820190508181036000830152610e988184610e09565b905092915050565b60008060408385031215610eb757610eb6610875565b5b6000610ec5858286016109e6565b9250506020610ed6858286016109e6565b9150509250929050565b600082825260208201905092915050565b7f416468616172206669656c6420656d7074790000000000000000000000000000600082015250565b6000610f27601283610ee0565b9150610f3282610ef1565b602082019050919050565b60006020820190508181036000830152610f5681610f1a565b9050919050565b7f4e487b7100000000000000000000000000000000000000000000000000000000600052602260045260246000fd5b60006002820490506001821680610fa457607f821691505b602082108103610fb757610fb6610f5d565b5b50919050565b60008190508160005260206000209050919050565b60006020601f8301049050919050565b600082821b905092915050565b60006008830261101f7fffffffffffffffffffffffffffffffffffffffffffffffffffffffffffffffff82610fe2565b6110298683610fe2565b95508019841693508086168417925050509392505050565b6000819050919050565b600061106661106161105c846109c5565b611041565b6109c5565b9050919050565b6000819050919050565b6110808361104b565b61109461108c8261106d565b848454610fef565b825550505050565b600090565b6110a961109c565b6110b4818484611077565b505050565b5b818110156110d8576110cd6000826110a1565b6001810190506110ba565b5050565b601f82111561111d576110ee81610fbd565b6110f784610fd2565b81016020851015611106578190505b61111a61111285610fd2565b8301826110b9565b50505b505050565b600082821c905092915050565b600061114060001984600802611122565b1980831691505092915050565b6000611159838361112f565b9150826002028217905092915050565b61117282610b7b565b67ffffffffffffffff81111561118b5761118a61089a565b5b6111958254610f8c565b6111a08282856110dc565b600060209050601f8311600181146111d357600084156111c1578287015190505b6111cb858261114d565b865550611233565b601f1984166111e186610fbd565b60005b82811015611209578489015182556001820191506020850194506020810190506111e4565b868310156112265784890151611222601f89168261112f565b8355505b6001600288020188555050505b505050505050565b7f4e487b7100000000000000000000000000000000000000000000000000000000600052601160045260246000fd5b6000611275826109c5565b91507fffffffffffffffffffffffffffffffffffffffffffffffffffffffffffffffff82036112a7576112a661123b565b5b600182019050919050565b6112bb816109c5565b82525050565b600081546112ce81610f8c565b6112d88186610ee0565b945060018216600081146112f357600181146113095761133c565b60ff19831686528115156020028601935061133c565b61131285610fbd565b60005b8381101561133457815481890152600182019150602081019050611315565b808801955050505b50505092915050565b61134e81610a1b565b82525050565b61135d81610d57565b82525050565b600060a08201905061137860008301886112b2565b818103602083015261138a81876112c1565b905061139960408301866112b2565b6113a66060830185611345565b6113b36080830184611354565b9695505050505050565b60006080820190506113d260008301876112b2565b81810360208301526113e481866112c1565b905081810360408301526113f881856112c1565b905061140760608301846112b2565b95945050505050565b7f4e487b7100000000000000000000000000000000000000000000000000000000600052603260045260246000fd5b7f566f74657220416c726561647920766f74656400000000000000000000000000600082015250565b6000611475601383610ee0565b91506114808261143f565b602082019050919050565b600060208201905081810360008301526114a481611468565b9050919050565b60006114b6826109c5565b91506114c1836109c5565b92508282019050808211156114d9576114d861123b565b5b92915050565b600060408201905081810360008301526114f981856112c1565b905061150860208301846112b2565b939250505056fea2646970667358221220ff0c91f5c932c1156a7b726f2ba18123a56748d81000809475a9bf2502e9435f64736f6c63430008120033",
  "linkReferences": {},
  "deployedLinkReferences": {}
}