{
  "_format": "hh-sol-artifact-1",
  "contractName": "VotingSystem",
  "sourceName": "contracts/VotingSystem.sol",
  "abi": [
    {
      "anonymous": false,
      "inputs": [
        {
          "indexed": false,
          "internalType": "uint256",
          "name": "id",
          "type": "uint256"
        },
        {
          "indexed": false,
          "internalType": "string",
          "name": "name",
          "type": "string"
        },
        {
          "indexed": false,
          "internalType": "string",
          "name": "description",
          "type": "string"
        },
        {
          "indexed": false,
          "internalType": "uint256",
          "name": "voteCount",
          "type": "uint256"
        }
      ],
      "name": "CandidateAdded",
      "type": "event"
    },
    {
      "anonymous": false,
      "inputs": [
        {
          "indexed": false,
          "internalType": "string",
          "name": "name",
          "type": "string"
        },
        {
          "indexed": false,
          "internalType": "uint256",
          "name": "voteCount",
          "type": "uint256"
        }
      ],
      "name": "Voted",
      "type": "event"
    },
    {
      "anonymous": false,
      "inputs": [
        {
          "indexed": false,
          "internalType": "uint256",
          "name": "id",
          "type": "uint256"
        },
        {
          "indexed": false,
          "internalType": "string",
          "name": "name",
          "type": "string"
        },
        {
          "indexed": false,
          "internalType": "uint256",
          "name": "aadhar_number",
          "type": "uint256"
        },
        {
          "indexed": false,
          "internalType": "address",
          "name": "voter_id",
          "type": "address"
        },
        {
          "indexed": false,
          "internalType": "bool",
          "name": "voted",
          "type": "bool"
        }
      ],
      "name": "VoterAdded",
      "type": "event"
    },
    {
      "inputs": [
        {
          "internalType": "string",
          "name": "_name",
          "type": "string"
        },
        {
          "internalType": "string",
          "name": "_description",
          "type": "string"
        }
      ],
      "name": "addCandidate",
      "outputs": [],
      "stateMutability": "nonpayable",
      "type": "function"
    },
    {
      "inputs": [
        {
          "internalType": "uint256",
          "name": "candidate_id",
          "type": "uint256"
        },
        {
          "internalType": "uint256",
          "name": "voter_id",
          "type": "uint256"
        }
      ],
      "name": "addVote",
      "outputs": [],
      "stateMutability": "nonpayable",
      "type": "function"
    },
    {
      "inputs": [
        {
          "internalType": "string",
          "name": "_name",
          "type": "string"
        },
        {
          "internalType": "uint256",
          "name": "_aadhar_number",
          "type": "uint256"
        },
        {
          "internalType": "address",
          "name": "_voter_id",
          "type": "address"
        }
      ],
      "name": "addVoter",
      "outputs": [],
      "stateMutability": "nonpayable",
      "type": "function"
    },
    {
      "inputs": [],
      "name": "candidateCount",
      "outputs": [
        {
          "internalType": "uint256",
          "name": "",
          "type": "uint256"
        }
      ],
      "stateMutability": "view",
      "type": "function"
    },
    {
      "inputs": [
        {
          "internalType": "uint256",
          "name": "",
          "type": "uint256"
        }
      ],
      "name": "candidateList",
      "outputs": [
        {
          "internalType": "uint256",
          "name": "id",
          "type": "uint256"
        },
        {
          "internalType": "string",
          "name": "name",
          "type": "string"
        },
        {
          "internalType": "string",
          "name": "description",
          "type": "string"
        },
        {
          "internalType": "uint256",
          "name": "voteCount",
          "type": "uint256"
        }
      ],
      "stateMutability": "view",
      "type": "function"
    },
    {
      "inputs": [],
      "name": "getCandidateCount",
      "outputs": [
        {
          "internalType": "uint256",
          "name": "",
          "type": "uint256"
        }
      ],
      "stateMutability": "view",
      "type": "function"
    },
    {
      "inputs": [],
      "name": "getCandidatesList",
      "outputs": [
        {
          "components": [
            {
              "internalType": "uint256",
              "name": "id",
              "type": "uint256"
            },
            {
              "internalType": "string",
              "name": "name",
              "type": "string"
            },
            {
              "internalType": "string",
              "name": "description",
              "type": "string"
            },
            {
              "internalType": "uint256",
              "name": "voteCount",
              "type": "uint256"
            }
          ],
          "internalType": "struct VotingSystem.Candidate[]",
          "name": "",
          "type": "tuple[]"
        }
      ],
      "stateMutability": "view",
      "type": "function"
    },
    {
      "inputs": [],
      "name": "getVotersList",
      "outputs": [
        {
          "components": [
            {
              "internalType": "uint256",
              "name": "id",
              "type": "uint256"
            },
            {
              "internalType": "string",
              "name": "name",
              "type": "string"
            },
            {
              "internalType": "uint256",
              "name": "aadhar_number",
              "type": "uint256"
            },
            {
              "internalType": "address",
              "name": "voter_id",
              "type": "address"
            },
            {
              "internalType": "bool",
              "name": "voted",
              "type": "bool"
            }
          ],
          "internalType": "struct VotingSystem.Voter[]",
          "name": "",
          "type": "tuple[]"
        }
      ],
      "stateMutability": "view",
      "type": "function"
    },
    {
      "inputs": [],
      "name": "voterCount",
      "outputs": [
        {
          "internalType": "uint256",
          "name": "",
          "type": "uint256"
        }
      ],
      "stateMutability": "view",
      "type": "function"
    }
  ],
  "bytecode": "0x608060405234801561001057600080fd5b50611837806100206000396000f3fe608060405234801561001057600080fd5b50600436106100935760003560e01c80634aba5f34116100665780634aba5f341461010c578063a9a981a31461012a578063b13c744b14610148578063bc86f3851461017b578063fcca991b1461019957610093565b8063256b237a1461009857806326541b56146100b457806330a56347146100d057806342169e48146100ee575b600080fd5b6100b260048036038101906100ad9190610c77565b6101b5565b005b6100ce60048036038101906100c99190610ce6565b610334565b005b6100d86103ec565b6040516100e59190610d6d565b60405180910390f35b6100f66103f5565b6040516101039190610d6d565b60405180910390f35b6101146103fb565b6040516101219190610f42565b60405180910390f35b6101326105f8565b60405161013f9190610d6d565b60405180910390f35b610162600480360381019061015d9190610f64565b6105fe565b6040516101729493929190610fdb565b60405180910390f35b61018361073e565b6040516101909190611190565b60405180910390f35b6101b360048036038101906101ae91906111b2565b61091b565b005b600082116101f8576040517f08c379a00000000000000000000000000000000000000000000000000000000081526004016101ef9061123e565b60405180910390fd5b6000600360006001548152602001908152602001600020905060015481600001819055508381600101908161022d919061146a565b50828160020181905550818160030160006101000a81548173ffffffffffffffffffffffffffffffffffffffff021916908373ffffffffffffffffffffffffffffffffffffffff16021790555060008160030160146101000a81548160ff021916908315150217905550600160008154809291906102aa9061156b565b91905055507fe897348a4979c96adc6ca882d2567499192bd0ee2a3d6ea848f98f1f352bdcb081600001548260010183600201548460030160009054906101000a900473ffffffffffffffffffffffffffffffffffffffff168560030160149054906101000a900460ff16604051610326959493929190611655565b60405180910390a150505050565b600060026000805481526020019081526020016000209050600054816000018190555082816001019081610368919061146a565b508181600201908161037a919061146a565b50600081600301819055506000808154809291906103979061156b565b91905055507fdd6daafbec7bc65fb954191f5538d48cc40cf3f5560fa099c1ad4dc97270cfd98160000154826001018360020184600301546040516103df94939291906116af565b60405180910390a1505050565b60008054905090565b60015481565b60606000805467ffffffffffffffff81111561041a57610419610ab8565b5b60405190808252806020026020018201604052801561045357816020015b610440610a1a565b8152602001906001900390816104385790505b50905060005b6000548110156105f057600060026000838152602001908152602001600020905080604051806080016040529081600082015481526020016001820180546104a09061128d565b80601f01602080910402602001604051908101604052809291908181526020018280546104cc9061128d565b80156105195780601f106104ee57610100808354040283529160200191610519565b820191906000526020600020905b8154815290600101906020018083116104fc57829003601f168201915b505050505081526020016002820180546105329061128d565b80601f016020809104026020016040519081016040528092919081815260200182805461055e9061128d565b80156105ab5780601f10610580576101008083540402835291602001916105ab565b820191906000526020600020905b81548152906001019060200180831161058e57829003601f168201915b505050505081526020016003820154815250508383815181106105d1576105d0611702565b5b60200260200101819052505080806105e89061156b565b915050610459565b508091505090565b60005481565b60026020528060005260406000206000915090508060000154908060010180546106279061128d565b80601f01602080910402602001604051908101604052809291908181526020018280546106539061128d565b80156106a05780601f10610675576101008083540402835291602001916106a0565b820191906000526020600020905b81548152906001019060200180831161068357829003601f168201915b5050505050908060020180546106b59061128d565b80601f01602080910402602001604051908101604052809291908181526020018280546106e19061128d565b801561072e5780601f106107035761010080835404028352916020019161072e565b820191906000526020600020905b81548152906001019060200180831161071157829003601f168201915b5050505050908060030154905084565b6060600060015467ffffffffffffffff81111561075e5761075d610ab8565b5b60405190808252806020026020018201604052801561079757816020015b610784610a42565b81526020019060019003908161077c5790505b50905060005b600154811015610913576000600360008381526020019081526020016000209050806040518060a0016040529081600082015481526020016001820180546107e49061128d565b80601f01602080910402602001604051908101604052809291908181526020018280546108109061128d565b801561085d5780601f106108325761010080835404028352916020019161085d565b820191906000526020600020905b81548152906001019060200180831161084057829003601f168201915b50505050508152602001600282015481526020016003820160009054906101000a900473ffffffffffffffffffffffffffffffffffffffff1673ffffffffffffffffffffffffffffffffffffffff1673ffffffffffffffffffffffffffffffffffffffff1681526020016003820160149054906101000a900460ff1615151515815250508383815181106108f4576108f3611702565b5b602002602001018190525050808061090b9061156b565b91505061079d565b508091505090565b60006003600083815260200190815260200160002090508060030160149054906101000a900460ff1615610984576040517f08c379a000000000000000000000000000000000000000000000000000000000815260040161097b9061177d565b60405180910390fd5b600060026000858152602001908152602001600020905060018160030160008282546109b0919061179d565b9250508190555060018260030160146101000a81548160ff0219169083151502179055507f82ea01a4479f27996bbe8de24f4c8d962035fe2f32a2b130c8c9ca593ab91aa8816001018260030154604051610a0c9291906117d1565b60405180910390a150505050565b6040518060800160405280600081526020016060815260200160608152602001600081525090565b6040518060a00160405280600081526020016060815260200160008152602001600073ffffffffffffffffffffffffffffffffffffffff1681526020016000151581525090565b6000604051905090565b600080fd5b600080fd5b600080fd5b600080fd5b6000601f19601f8301169050919050565b7f4e487b7100000000000000000000000000000000000000000000000000000000600052604160045260246000fd5b610af082610aa7565b810181811067ffffffffffffffff82111715610b0f57610b0e610ab8565b5b80604052505050565b6000610b22610a89565b9050610b2e8282610ae7565b919050565b600067ffffffffffffffff821115610b4e57610b4d610ab8565b5b610b5782610aa7565b9050602081019050919050565b82818337600083830152505050565b6000610b86610b8184610b33565b610b18565b905082815260208101848484011115610ba257610ba1610aa2565b5b610bad848285610b64565b509392505050565b600082601f830112610bca57610bc9610a9d565b5b8135610bda848260208601610b73565b91505092915050565b6000819050919050565b610bf681610be3565b8114610c0157600080fd5b50565b600081359050610c1381610bed565b92915050565b600073ffffffffffffffffffffffffffffffffffffffff82169050919050565b6000610c4482610c19565b9050919050565b610c5481610c39565b8114610c5f57600080fd5b50565b600081359050610c7181610c4b565b92915050565b600080600060608486031215610c9057610c8f610a93565b5b600084013567ffffffffffffffff811115610cae57610cad610a98565b5b610cba86828701610bb5565b9350506020610ccb86828701610c04565b9250506040610cdc86828701610c62565b9150509250925092565b60008060408385031215610cfd57610cfc610a93565b5b600083013567ffffffffffffffff811115610d1b57610d1a610a98565b5b610d2785828601610bb5565b925050602083013567ffffffffffffffff811115610d4857610d47610a98565b5b610d5485828601610bb5565b9150509250929050565b610d6781610be3565b82525050565b6000602082019050610d826000830184610d5e565b92915050565b600081519050919050565b600082825260208201905092915050565b6000819050602082019050919050565b610dbd81610be3565b82525050565b600081519050919050565b600082825260208201905092915050565b60005b83811015610dfd578082015181840152602081019050610de2565b60008484015250505050565b6000610e1482610dc3565b610e1e8185610dce565b9350610e2e818560208601610ddf565b610e3781610aa7565b840191505092915050565b6000608083016000830151610e5a6000860182610db4565b5060208301518482036020860152610e728282610e09565b91505060408301518482036040860152610e8c8282610e09565b9150506060830151610ea16060860182610db4565b508091505092915050565b6000610eb88383610e42565b905092915050565b6000602082019050919050565b6000610ed882610d88565b610ee28185610d93565b935083602082028501610ef485610da4565b8060005b85811015610f305784840389528151610f118582610eac565b9450610f1c83610ec0565b925060208a01995050600181019050610ef8565b50829750879550505050505092915050565b60006020820190508181036000830152610f5c8184610ecd565b905092915050565b600060208284031215610f7a57610f79610a93565b5b6000610f8884828501610c04565b91505092915050565b600082825260208201905092915050565b6000610fad82610dc3565b610fb78185610f91565b9350610fc7818560208601610ddf565b610fd081610aa7565b840191505092915050565b6000608082019050610ff06000830187610d5e565b81810360208301526110028186610fa2565b905081810360408301526110168185610fa2565b90506110256060830184610d5e565b95945050505050565b600081519050919050565b600082825260208201905092915050565b6000819050602082019050919050565b61106381610c39565b82525050565b60008115159050919050565b61107e81611069565b82525050565b600060a08301600083015161109c6000860182610db4565b50602083015184820360208601526110b48282610e09565b91505060408301516110c96040860182610db4565b5060608301516110dc606086018261105a565b5060808301516110ef6080860182611075565b508091505092915050565b60006111068383611084565b905092915050565b6000602082019050919050565b60006111268261102e565b6111308185611039565b9350836020820285016111428561104a565b8060005b8581101561117e578484038952815161115f85826110fa565b945061116a8361110e565b925060208a01995050600181019050611146565b50829750879550505050505092915050565b600060208201905081810360008301526111aa818461111b565b905092915050565b600080604083850312156111c9576111c8610a93565b5b60006111d785828601610c04565b92505060206111e885828601610c04565b9150509250929050565b7f416468616172206669656c6420656d7074790000000000000000000000000000600082015250565b6000611228601283610f91565b9150611233826111f2565b602082019050919050565b600060208201905081810360008301526112578161121b565b9050919050565b7f4e487b7100000000000000000000000000000000000000000000000000000000600052602260045260246000fd5b600060028204905060018216806112a557607f821691505b6020821081036112b8576112b761125e565b5b50919050565b60008190508160005260206000209050919050565b60006020601f8301049050919050565b600082821b905092915050565b6000600883026113207fffffffffffffffffffffffffffffffffffffffffffffffffffffffffffffffff826112e3565b61132a86836112e3565b95508019841693508086168417925050509392505050565b6000819050919050565b600061136761136261135d84610be3565b611342565b610be3565b9050919050565b6000819050919050565b6113818361134c565b61139561138d8261136e565b8484546112f0565b825550505050565b600090565b6113aa61139d565b6113b5818484611378565b505050565b5b818110156113d9576113ce6000826113a2565b6001810190506113bb565b5050565b601f82111561141e576113ef816112be565b6113f8846112d3565b81016020851015611407578190505b61141b611413856112d3565b8301826113ba565b50505b505050565b600082821c905092915050565b600061144160001984600802611423565b1980831691505092915050565b600061145a8383611430565b9150826002028217905092915050565b61147382610dc3565b67ffffffffffffffff81111561148c5761148b610ab8565b5b611496825461128d565b6114a18282856113dd565b600060209050601f8311600181146114d457600084156114c2578287015190505b6114cc858261144e565b865550611534565b601f1984166114e2866112be565b60005b8281101561150a578489015182556001820191506020850194506020810190506114e5565b868310156115275784890151611523601f891682611430565b8355505b6001600288020188555050505b505050505050565b7f4e487b7100000000000000000000000000000000000000000000000000000000600052601160045260246000fd5b600061157682610be3565b91507fffffffffffffffffffffffffffffffffffffffffffffffffffffffffffffffff82036115a8576115a761153c565b5b600182019050919050565b600081546115c08161128d565b6115ca8186610f91565b945060018216600081146115e557600181146115fb5761162e565b60ff19831686528115156020028601935061162e565b611604856112be565b60005b8381101561162657815481890152600182019150602081019050611607565b808801955050505b50505092915050565b61164081610c39565b82525050565b61164f81611069565b82525050565b600060a08201905061166a6000830188610d5e565b818103602083015261167c81876115b3565b905061168b6040830186610d5e565b6116986060830185611637565b6116a56080830184611646565b9695505050505050565b60006080820190506116c46000830187610d5e565b81810360208301526116d681866115b3565b905081810360408301526116ea81856115b3565b90506116f96060830184610d5e565b95945050505050565b7f4e487b7100000000000000000000000000000000000000000000000000000000600052603260045260246000fd5b7f566f74657220416c726561647920766f74656400000000000000000000000000600082015250565b6000611767601383610f91565b915061177282611731565b602082019050919050565b600060208201905081810360008301526117968161175a565b9050919050565b60006117a882610be3565b91506117b383610be3565b92508282019050808211156117cb576117ca61153c565b5b92915050565b600060408201905081810360008301526117eb81856115b3565b90506117fa6020830184610d5e565b939250505056fea2646970667358221220a4dc9c718875f7785bdd77bc678192db102589050bf9c67269585ff754e22b3764736f6c63430008120033",
  "linkReferences": {},
  "deployedLinkReferences": {}
}