{
  "_format": "hh-sol-artifact-1",
  "contractName": "VotingSystem",
  "sourceName": "contracts/VotingSystem.sol",
  "abi": [
    {
      "anonymous": false,
      "inputs": [
        {
          "indexed": false,
          "internalType": "uint256",
          "name": "id",
          "type": "uint256"
        },
        {
          "indexed": false,
          "internalType": "string",
          "name": "name",
          "type": "string"
        },
        {
          "indexed": false,
          "internalType": "string",
          "name": "description",
          "type": "string"
        },
        {
          "indexed": false,
          "internalType": "uint256",
          "name": "voteCount",
          "type": "uint256"
        }
      ],
      "name": "CandidateAdded",
      "type": "event"
    },
    {
      "anonymous": false,
      "inputs": [
        {
          "indexed": false,
          "internalType": "string",
          "name": "name",
          "type": "string"
        },
        {
          "indexed": false,
          "internalType": "uint256",
          "name": "voteCount",
          "type": "uint256"
        }
      ],
      "name": "Voted",
      "type": "event"
    },
    {
      "anonymous": false,
      "inputs": [
        {
          "indexed": false,
          "internalType": "uint256",
          "name": "id",
          "type": "uint256"
        },
        {
          "indexed": false,
          "internalType": "string",
          "name": "name",
          "type": "string"
        },
        {
          "indexed": false,
          "internalType": "uint256",
          "name": "aadhar_number",
          "type": "uint256"
        },
        {
          "indexed": false,
          "internalType": "address",
          "name": "voter_id",
          "type": "address"
        },
        {
          "indexed": false,
          "internalType": "bool",
          "name": "voted",
          "type": "bool"
        }
      ],
      "name": "VoterAdded",
      "type": "event"
    },
    {
      "inputs": [
        {
          "internalType": "string",
          "name": "_name",
          "type": "string"
        },
        {
          "internalType": "string",
          "name": "_description",
          "type": "string"
        }
      ],
      "name": "addCandidate",
      "outputs": [],
      "stateMutability": "nonpayable",
      "type": "function"
    },
    {
      "inputs": [
        {
          "internalType": "uint256",
          "name": "candidate_id",
          "type": "uint256"
        }
      ],
      "name": "addVote",
      "outputs": [],
      "stateMutability": "nonpayable",
      "type": "function"
    },
    {
      "inputs": [
        {
          "internalType": "string",
          "name": "_name",
          "type": "string"
        },
        {
          "internalType": "uint256",
          "name": "_aadhar_number",
          "type": "uint256"
        },
        {
          "internalType": "address",
          "name": "_voter_id",
          "type": "address"
        }
      ],
      "name": "addVoter",
      "outputs": [],
      "stateMutability": "nonpayable",
      "type": "function"
    },
    {
      "inputs": [],
      "name": "candidateCount",
      "outputs": [
        {
          "internalType": "uint256",
          "name": "",
          "type": "uint256"
        }
      ],
      "stateMutability": "view",
      "type": "function"
    },
    {
      "inputs": [
        {
          "internalType": "uint256",
          "name": "",
          "type": "uint256"
        }
      ],
      "name": "candidateList",
      "outputs": [
        {
          "internalType": "uint256",
          "name": "id",
          "type": "uint256"
        },
        {
          "internalType": "string",
          "name": "name",
          "type": "string"
        },
        {
          "internalType": "string",
          "name": "description",
          "type": "string"
        },
        {
          "internalType": "uint256",
          "name": "voteCount",
          "type": "uint256"
        }
      ],
      "stateMutability": "view",
      "type": "function"
    },
    {
      "inputs": [],
      "name": "getCandidatesList",
      "outputs": [
        {
          "components": [
            {
              "internalType": "uint256",
              "name": "id",
              "type": "uint256"
            },
            {
              "internalType": "string",
              "name": "name",
              "type": "string"
            },
            {
              "internalType": "string",
              "name": "description",
              "type": "string"
            },
            {
              "internalType": "uint256",
              "name": "voteCount",
              "type": "uint256"
            }
          ],
          "internalType": "struct VotingSystem.Candidate[]",
          "name": "",
          "type": "tuple[]"
        }
      ],
      "stateMutability": "view",
      "type": "function"
    },
    {
      "inputs": [],
      "name": "getVotersList",
      "outputs": [
        {
          "components": [
            {
              "internalType": "uint256",
              "name": "id",
              "type": "uint256"
            },
            {
              "internalType": "string",
              "name": "name",
              "type": "string"
            },
            {
              "internalType": "uint256",
              "name": "aadhar_number",
              "type": "uint256"
            },
            {
              "internalType": "address",
              "name": "voter_id",
              "type": "address"
            },
            {
              "internalType": "bool",
              "name": "voted",
              "type": "bool"
            }
          ],
          "internalType": "struct VotingSystem.Voter[]",
          "name": "",
          "type": "tuple[]"
        }
      ],
      "stateMutability": "view",
      "type": "function"
    },
    {
      "inputs": [],
      "name": "voterCount",
      "outputs": [
        {
          "internalType": "uint256",
          "name": "",
          "type": "uint256"
        }
      ],
      "stateMutability": "view",
      "type": "function"
    },
    {
      "inputs": [
        {
          "internalType": "uint256",
          "name": "",
          "type": "uint256"
        }
      ],
      "name": "voterList",
      "outputs": [
        {
          "internalType": "uint256",
          "name": "id",
          "type": "uint256"
        },
        {
          "internalType": "string",
          "name": "name",
          "type": "string"
        },
        {
          "internalType": "uint256",
          "name": "aadhar_number",
          "type": "uint256"
        },
        {
          "internalType": "address",
          "name": "voter_id",
          "type": "address"
        },
        {
          "internalType": "bool",
          "name": "voted",
          "type": "bool"
        }
      ],
      "stateMutability": "view",
      "type": "function"
    },
    {
      "inputs": [
        {
          "internalType": "address",
          "name": "",
          "type": "address"
        }
      ],
      "name": "voters",
      "outputs": [
        {
          "internalType": "uint256",
          "name": "id",
          "type": "uint256"
        },
        {
          "internalType": "string",
          "name": "name",
          "type": "string"
        },
        {
          "internalType": "uint256",
          "name": "aadhar_number",
          "type": "uint256"
        },
        {
          "internalType": "address",
          "name": "voter_id",
          "type": "address"
        },
        {
          "internalType": "bool",
          "name": "voted",
          "type": "bool"
        }
      ],
      "stateMutability": "view",
      "type": "function"
    }
  ],
  "bytecode": "0x608060405234801561001057600080fd5b50611acb806100206000396000f3fe608060405234801561001057600080fd5b506004361061009e5760003560e01c806350e2e8af1161006657806350e2e8af14610133578063a3ec138d14610167578063a9a981a31461019b578063b13c744b146101b9578063bc86f385146101ec5761009e565b80630383badc146100a3578063256b237a146100bf57806326541b56146100db57806342169e48146100f75780634aba5f3414610115575b600080fd5b6100bd60048036038101906100b89190610d20565b61020a565b005b6100d960048036038101906100d49190610ef1565b610334565b005b6100f560048036038101906100f09190610f60565b6104b3565b005b6100ff61056b565b60405161010c9190610fe7565b60405180910390f35b61011d610571565b60405161012a91906111bc565b60405180910390f35b61014d60048036038101906101489190610d20565b61076e565b60405161015e959493929190611252565b60405180910390f35b610181600480360381019061017c91906112ac565b610859565b604051610192959493929190611252565b60405180910390f35b6101a3610944565b6040516101b09190610fe7565b60405180910390f35b6101d360048036038101906101ce9190610d20565b61094a565b6040516101e394939291906112d9565b60405180910390f35b6101f4610a8a565b6040516102019190611482565b60405180910390f35b6000600460003373ffffffffffffffffffffffffffffffffffffffff1673ffffffffffffffffffffffffffffffffffffffff16815260200190815260200160002090508060030160149054906101000a900460ff161561029f576040517f08c379a0000000000000000000000000000000000000000000000000000000008152600401610296906114f0565b60405180910390fd5b600060026000848152602001908152602001600020905060018160030160008282546102cb919061153f565b9250508190555060018260030160146101000a81548160ff0219169083151502179055507f82ea01a4479f27996bbe8de24f4c8d962035fe2f32a2b130c8c9ca593ab91aa881600101826003015460405161032792919061166c565b60405180910390a1505050565b60008211610377576040517f08c379a000000000000000000000000000000000000000000000000000000000815260040161036e906116e8565b60405180910390fd5b600060036000600154815260200190815260200160002090506001548160000181905550838160010190816103ac919061189f565b50828160020181905550818160030160006101000a81548173ffffffffffffffffffffffffffffffffffffffff021916908373ffffffffffffffffffffffffffffffffffffffff16021790555060008160030160146101000a81548160ff0219169083151502179055506001600081548092919061042990611971565b91905055507fe897348a4979c96adc6ca882d2567499192bd0ee2a3d6ea848f98f1f352bdcb081600001548260010183600201548460030160009054906101000a900473ffffffffffffffffffffffffffffffffffffffff168560030160149054906101000a900460ff166040516104a59594939291906119b9565b60405180910390a150505050565b6000600260008054815260200190815260200160002090506000548160000181905550828160010190816104e7919061189f565b50818160020190816104f9919061189f565b506000816003018190555060008081548092919061051690611971565b91905055507fdd6daafbec7bc65fb954191f5538d48cc40cf3f5560fa099c1ad4dc97270cfd981600001548260010183600201846003015460405161055e9493929190611a13565b60405180910390a1505050565b60015481565b60606000805467ffffffffffffffff8111156105905761058f610d68565b5b6040519080825280602002602001820160405280156105c957816020015b6105b6610c67565b8152602001906001900390816105ae5790505b50905060005b6000548110156107665760006002600083815260200190815260200160002090508060405180608001604052908160008201548152602001600182018054610616906115a2565b80601f0160208091040260200160405190810160405280929190818152602001828054610642906115a2565b801561068f5780601f106106645761010080835404028352916020019161068f565b820191906000526020600020905b81548152906001019060200180831161067257829003601f168201915b505050505081526020016002820180546106a8906115a2565b80601f01602080910402602001604051908101604052809291908181526020018280546106d4906115a2565b80156107215780601f106106f657610100808354040283529160200191610721565b820191906000526020600020905b81548152906001019060200180831161070457829003601f168201915b5050505050815260200160038201548152505083838151811061074757610746611a66565b5b602002602001018190525050808061075e90611971565b9150506105cf565b508091505090565b6003602052806000526040600020600091509050806000015490806001018054610797906115a2565b80601f01602080910402602001604051908101604052809291908181526020018280546107c3906115a2565b80156108105780601f106107e557610100808354040283529160200191610810565b820191906000526020600020905b8154815290600101906020018083116107f357829003601f168201915b5050505050908060020154908060030160009054906101000a900473ffffffffffffffffffffffffffffffffffffffff16908060030160149054906101000a900460ff16905085565b6004602052806000526040600020600091509050806000015490806001018054610882906115a2565b80601f01602080910402602001604051908101604052809291908181526020018280546108ae906115a2565b80156108fb5780601f106108d0576101008083540402835291602001916108fb565b820191906000526020600020905b8154815290600101906020018083116108de57829003601f168201915b5050505050908060020154908060030160009054906101000a900473ffffffffffffffffffffffffffffffffffffffff16908060030160149054906101000a900460ff16905085565b60005481565b6002602052806000526040600020600091509050806000015490806001018054610973906115a2565b80601f016020809104026020016040519081016040528092919081815260200182805461099f906115a2565b80156109ec5780601f106109c1576101008083540402835291602001916109ec565b820191906000526020600020905b8154815290600101906020018083116109cf57829003601f168201915b505050505090806002018054610a01906115a2565b80601f0160208091040260200160405190810160405280929190818152602001828054610a2d906115a2565b8015610a7a5780601f10610a4f57610100808354040283529160200191610a7a565b820191906000526020600020905b815481529060010190602001808311610a5d57829003601f168201915b5050505050908060030154905084565b6060600060015467ffffffffffffffff811115610aaa57610aa9610d68565b5b604051908082528060200260200182016040528015610ae357816020015b610ad0610c8f565b815260200190600190039081610ac85790505b50905060005b600154811015610c5f576000600360008381526020019081526020016000209050806040518060a001604052908160008201548152602001600182018054610b30906115a2565b80601f0160208091040260200160405190810160405280929190818152602001828054610b5c906115a2565b8015610ba95780601f10610b7e57610100808354040283529160200191610ba9565b820191906000526020600020905b815481529060010190602001808311610b8c57829003601f168201915b50505050508152602001600282015481526020016003820160009054906101000a900473ffffffffffffffffffffffffffffffffffffffff1673ffffffffffffffffffffffffffffffffffffffff1673ffffffffffffffffffffffffffffffffffffffff1681526020016003820160149054906101000a900460ff161515151581525050838381518110610c4057610c3f611a66565b5b6020026020010181905250508080610c5790611971565b915050610ae9565b508091505090565b6040518060800160405280600081526020016060815260200160608152602001600081525090565b6040518060a00160405280600081526020016060815260200160008152602001600073ffffffffffffffffffffffffffffffffffffffff1681526020016000151581525090565b6000604051905090565b600080fd5b600080fd5b6000819050919050565b610cfd81610cea565b8114610d0857600080fd5b50565b600081359050610d1a81610cf4565b92915050565b600060208284031215610d3657610d35610ce0565b5b6000610d4484828501610d0b565b91505092915050565b600080fd5b600080fd5b6000601f19601f8301169050919050565b7f4e487b7100000000000000000000000000000000000000000000000000000000600052604160045260246000fd5b610da082610d57565b810181811067ffffffffffffffff82111715610dbf57610dbe610d68565b5b80604052505050565b6000610dd2610cd6565b9050610dde8282610d97565b919050565b600067ffffffffffffffff821115610dfe57610dfd610d68565b5b610e0782610d57565b9050602081019050919050565b82818337600083830152505050565b6000610e36610e3184610de3565b610dc8565b905082815260208101848484011115610e5257610e51610d52565b5b610e5d848285610e14565b509392505050565b600082601f830112610e7a57610e79610d4d565b5b8135610e8a848260208601610e23565b91505092915050565b600073ffffffffffffffffffffffffffffffffffffffff82169050919050565b6000610ebe82610e93565b9050919050565b610ece81610eb3565b8114610ed957600080fd5b50565b600081359050610eeb81610ec5565b92915050565b600080600060608486031215610f0a57610f09610ce0565b5b600084013567ffffffffffffffff811115610f2857610f27610ce5565b5b610f3486828701610e65565b9350506020610f4586828701610d0b565b9250506040610f5686828701610edc565b9150509250925092565b60008060408385031215610f7757610f76610ce0565b5b600083013567ffffffffffffffff811115610f9557610f94610ce5565b5b610fa185828601610e65565b925050602083013567ffffffffffffffff811115610fc257610fc1610ce5565b5b610fce85828601610e65565b9150509250929050565b610fe181610cea565b82525050565b6000602082019050610ffc6000830184610fd8565b92915050565b600081519050919050565b600082825260208201905092915050565b6000819050602082019050919050565b61103781610cea565b82525050565b600081519050919050565b600082825260208201905092915050565b60005b8381101561107757808201518184015260208101905061105c565b60008484015250505050565b600061108e8261103d565b6110988185611048565b93506110a8818560208601611059565b6110b181610d57565b840191505092915050565b60006080830160008301516110d4600086018261102e565b50602083015184820360208601526110ec8282611083565b915050604083015184820360408601526111068282611083565b915050606083015161111b606086018261102e565b508091505092915050565b600061113283836110bc565b905092915050565b6000602082019050919050565b600061115282611002565b61115c818561100d565b93508360208202850161116e8561101e565b8060005b858110156111aa578484038952815161118b8582611126565b94506111968361113a565b925060208a01995050600181019050611172565b50829750879550505050505092915050565b600060208201905081810360008301526111d68184611147565b905092915050565b600082825260208201905092915050565b60006111fa8261103d565b61120481856111de565b9350611214818560208601611059565b61121d81610d57565b840191505092915050565b61123181610eb3565b82525050565b60008115159050919050565b61124c81611237565b82525050565b600060a0820190506112676000830188610fd8565b818103602083015261127981876111ef565b90506112886040830186610fd8565b6112956060830185611228565b6112a26080830184611243565b9695505050505050565b6000602082840312156112c2576112c1610ce0565b5b60006112d084828501610edc565b91505092915050565b60006080820190506112ee6000830187610fd8565b818103602083015261130081866111ef565b9050818103604083015261131481856111ef565b90506113236060830184610fd8565b95945050505050565b600081519050919050565b600082825260208201905092915050565b6000819050602082019050919050565b61136181610eb3565b82525050565b61137081611237565b82525050565b600060a08301600083015161138e600086018261102e565b50602083015184820360208601526113a68282611083565b91505060408301516113bb604086018261102e565b5060608301516113ce6060860182611358565b5060808301516113e16080860182611367565b508091505092915050565b60006113f88383611376565b905092915050565b6000602082019050919050565b60006114188261132c565b6114228185611337565b93508360208202850161143485611348565b8060005b85811015611470578484038952815161145185826113ec565b945061145c83611400565b925060208a01995050600181019050611438565b50829750879550505050505092915050565b6000602082019050818103600083015261149c818461140d565b905092915050565b7f566f74657220416c726561647920766f74656400000000000000000000000000600082015250565b60006114da6013836111de565b91506114e5826114a4565b602082019050919050565b60006020820190508181036000830152611509816114cd565b9050919050565b7f4e487b7100000000000000000000000000000000000000000000000000000000600052601160045260246000fd5b600061154a82610cea565b915061155583610cea565b925082820190508082111561156d5761156c611510565b5b92915050565b7f4e487b7100000000000000000000000000000000000000000000000000000000600052602260045260246000fd5b600060028204905060018216806115ba57607f821691505b6020821081036115cd576115cc611573565b5b50919050565b60008190508160005260206000209050919050565b600081546115f5816115a2565b6115ff81866111de565b9450600182166000811461161a576001811461163057611663565b60ff198316865281151560200286019350611663565b611639856115d3565b60005b8381101561165b5781548189015260018201915060208101905061163c565b808801955050505b50505092915050565b6000604082019050818103600083015261168681856115e8565b90506116956020830184610fd8565b9392505050565b7f416468616172206669656c6420656d7074790000000000000000000000000000600082015250565b60006116d26012836111de565b91506116dd8261169c565b602082019050919050565b60006020820190508181036000830152611701816116c5565b9050919050565b60006020601f8301049050919050565b600082821b905092915050565b6000600883026117557fffffffffffffffffffffffffffffffffffffffffffffffffffffffffffffffff82611718565b61175f8683611718565b95508019841693508086168417925050509392505050565b6000819050919050565b600061179c61179761179284610cea565b611777565b610cea565b9050919050565b6000819050919050565b6117b683611781565b6117ca6117c2826117a3565b848454611725565b825550505050565b600090565b6117df6117d2565b6117ea8184846117ad565b505050565b5b8181101561180e576118036000826117d7565b6001810190506117f0565b5050565b601f82111561185357611824816115d3565b61182d84611708565b8101602085101561183c578190505b61185061184885611708565b8301826117ef565b50505b505050565b600082821c905092915050565b600061187660001984600802611858565b1980831691505092915050565b600061188f8383611865565b9150826002028217905092915050565b6118a88261103d565b67ffffffffffffffff8111156118c1576118c0610d68565b5b6118cb82546115a2565b6118d6828285611812565b600060209050601f83116001811461190957600084156118f7578287015190505b6119018582611883565b865550611969565b601f198416611917866115d3565b60005b8281101561193f5784890151825560018201915060208501945060208101905061191a565b8683101561195c5784890151611958601f891682611865565b8355505b6001600288020188555050505b505050505050565b600061197c82610cea565b91507fffffffffffffffffffffffffffffffffffffffffffffffffffffffffffffffff82036119ae576119ad611510565b5b600182019050919050565b600060a0820190506119ce6000830188610fd8565b81810360208301526119e081876115e8565b90506119ef6040830186610fd8565b6119fc6060830185611228565b611a096080830184611243565b9695505050505050565b6000608082019050611a286000830187610fd8565b8181036020830152611a3a81866115e8565b90508181036040830152611a4e81856115e8565b9050611a5d6060830184610fd8565b95945050505050565b7f4e487b7100000000000000000000000000000000000000000000000000000000600052603260045260246000fdfea26469706673582212209d8d23ef959dc9403f74e3a8ef25d067bb372217920f01b4d28523c444bb6c5664736f6c63430008120033",
  "linkReferences": {},
  "deployedLinkReferences": {}
}